{
  "contractName": "Ownable",
  "abi": [
    {
      "inputs": [],
      "stateMutability": "nonpayable",
      "type": "constructor"
    },
    {
      "inputs": [],
      "name": "isOwner",
      "outputs": [
        {
          "internalType": "bool",
          "name": "",
          "type": "bool"
        }
      ],
      "stateMutability": "view",
      "type": "function"
    }
  ],
  "bytecode": "0x6080604052348015600f57600080fd5b50336000806101000a81548173ffffffffffffffffffffffffffffffffffffffff021916908373ffffffffffffffffffffffffffffffffffffffff16021790555060da8061005e6000396000f3fe6080604052348015600f57600080fd5b506004361060285760003560e01c80638f32d59b14602d575b600080fd5b6033604d565b604051808215151515815260200191505060405180910390f35b60008060009054906101000a900473ffffffffffffffffffffffffffffffffffffffff1673ffffffffffffffffffffffffffffffffffffffff163373ffffffffffffffffffffffffffffffffffffffff161490509056fea26469706673582212202b75c4c16f63d89fd972784d5a5b17cc0d80313726bbfba9513f0c41a4c6092664736f6c63430006010033",
  "source": "pragma solidity ^0.6.0;\r\n\r\ncontract Ownable{\r\n    address payable _owner;\r\n    constructor() public{\r\n        _owner=msg.sender;\r\n    }\r\n    modifier onlyOwner(){\r\n        require(isOwner(),\"You are not an Owner!\");\r\n        _;\r\n    }\r\n    function isOwner() public view returns(bool){\r\n        return (msg.sender==_owner);\r\n    }\r\n}",
  "sourcePath": "C:\\Users\\shris\\desktop\\supplychain\\contracts\\Ownable.sol",
  "compiler": {
    "name": "solc",
    "version": "0.6.1+commit.e6f7d5a4.Emscripten.clang"
  },
  "schemaVersion": "3.4.2",
  "updatedAt": "2021-07-26T15:08:37.859Z",
  "devdoc": {
    "methods": {}
  },
  "userdoc": {
    "methods": {}
  }
}